{
  "_format": "hh-sol-artifact-1",
  "contractName": "lotterySmartContract",
  "sourceName": "contracts/LotterySmartContract.sol",
  "abi": [
    {
      "stateMutability": "payable",
      "type": "fallback"
    },
    {
      "inputs": [
        {
          "internalType": "address",
          "name": "",
          "type": "address"
        }
      ],
      "name": "Managers",
      "outputs": [
        {
          "internalType": "bool",
          "name": "status",
          "type": "bool"
        },
        {
          "internalType": "uint256",
          "name": "amount",
          "type": "uint256"
        }
      ],
      "stateMutability": "view",
      "type": "function"
    },
    {
      "inputs": [
        {
          "internalType": "address",
          "name": "",
          "type": "address"
        }
      ],
      "name": "Players",
      "outputs": [
        {
          "internalType": "uint256",
          "name": "noOfRound",
          "type": "uint256"
        },
        {
          "internalType": "uint256",
          "name": "completedRound",
          "type": "uint256"
        },
        {
          "internalType": "uint256",
          "name": "rewardAmount",
          "type": "uint256"
        }
      ],
      "stateMutability": "view",
      "type": "function"
    },
    {
      "inputs": [
        {
          "internalType": "address",
          "name": "_room",
          "type": "address"
        }
      ],
      "name": "buy",
      "outputs": [],
      "stateMutability": "payable",
      "type": "function"
    },
    {
      "inputs": [],
      "name": "end",
      "outputs": [],
      "stateMutability": "payable",
      "type": "function"
    },
    {
      "inputs": [],
      "name": "managerCommand",
      "outputs": [
        {
          "internalType": "bool",
          "name": "",
          "type": "bool"
        },
        {
          "internalType": "uint256",
          "name": "",
          "type": "uint256"
        },
        {
          "internalType": "uint256",
          "name": "",
          "type": "uint256"
        }
      ],
      "stateMutability": "view",
      "type": "function"
    },
    {
      "inputs": [],
      "name": "playerCommand",
      "outputs": [
        {
          "internalType": "uint256",
          "name": "",
          "type": "uint256"
        },
        {
          "internalType": "uint256",
          "name": "",
          "type": "uint256"
        },
        {
          "internalType": "uint256",
          "name": "",
          "type": "uint256"
        }
      ],
      "stateMutability": "view",
      "type": "function"
    },
    {
      "inputs": [
        {
          "internalType": "address",
          "name": "_room",
          "type": "address"
        }
      ],
      "name": "playerlist",
      "outputs": [
        {
          "internalType": "address payable[]",
          "name": "",
          "type": "address[]"
        }
      ],
      "stateMutability": "view",
      "type": "function"
    },
    {
      "inputs": [],
      "name": "showManager",
      "outputs": [
        {
          "internalType": "address[]",
          "name": "",
          "type": "address[]"
        }
      ],
      "stateMutability": "view",
      "type": "function"
    },
    {
      "inputs": [],
      "name": "start",
      "outputs": [
        {
          "internalType": "string",
          "name": "",
          "type": "string"
        }
      ],
      "stateMutability": "nonpayable",
      "type": "function"
    },
    {
      "stateMutability": "payable",
      "type": "receive"
    }
  ],
  "bytecode": "0x608060405234801561001057600080fd5b50611e13806100206000396000f3fe60806040526004361061008a5760003560e01c8063d8c4c02911610059578063d8c4c02914610165578063edbbdf2e14610192578063efbe1c1c146101d0578063f088d547146101da578063fb8ee649146101f657610091565b80632bff8dd614610093578063ae3e791f146100d2578063b9b986a41461010f578063be9a65551461013a57610091565b3661009157005b005b34801561009f57600080fd5b506100ba60048036038101906100b59190611513565b610223565b6040516100c993929190611559565b60405180910390f35b3480156100de57600080fd5b506100f960048036038101906100f49190611513565b61024d565b6040516101069190611660565b60405180910390f35b34801561011b57600080fd5b5061012461031d565b6040516101319190611740565b60405180910390f35b34801561014657600080fd5b5061014f6103ab565b60405161015c91906117f2565b60405180910390f35b34801561017157600080fd5b5061017a61053b565b60405161018993929190611559565b60405180910390f35b34801561019e57600080fd5b506101b960048036038101906101b49190611513565b610614565b6040516101c792919061182f565b60405180910390f35b6101d8610645565b005b6101f460048036038101906101ef9190611513565b610ed3565b005b34801561020257600080fd5b5061020b61134e565b60405161021a93929190611858565b60405180910390f35b60026020528060005260406000206000915090508060000154908060010154908060020154905083565b6060600160008373ffffffffffffffffffffffffffffffffffffffff1673ffffffffffffffffffffffffffffffffffffffff16815260200190815260200160002060020180548060200260200160405190810160405280929190818152602001828054801561031157602002820191906000526020600020905b8160009054906101000a900473ffffffffffffffffffffffffffffffffffffffff1673ffffffffffffffffffffffffffffffffffffffff16815260200190600101908083116102c7575b50505050509050919050565b606060008054806020026020016040519081016040528092919081815260200182805480156103a157602002820191906000526020600020905b8160009054906101000a900473ffffffffffffffffffffffffffffffffffffffff1673ffffffffffffffffffffffffffffffffffffffff1681526020019060010190808311610357575b5050505050905090565b606060001515600160003373ffffffffffffffffffffffffffffffffffffffff1673ffffffffffffffffffffffffffffffffffffffff16815260200190815260200160002060000160009054906101000a900460ff16151514610443576040517f08c379a000000000000000000000000000000000000000000000000000000000815260040161043a906118db565b60405180910390fd5b60018060003373ffffffffffffffffffffffffffffffffffffffff1673ffffffffffffffffffffffffffffffffffffffff16815260200190815260200160002060000160006101000a81548160ff0219169083151502179055506000339080600181540180825580915050600190039060005260206000200160009091909190916101000a81548173ffffffffffffffffffffffffffffffffffffffff021916908373ffffffffffffffffffffffffffffffffffffffff1602179055506040518060400160405280600781526020017f7374617274656400000000000000000000000000000000000000000000000000815250905090565b6000806000600260003373ffffffffffffffffffffffffffffffffffffffff1673ffffffffffffffffffffffffffffffffffffffff16815260200190815260200160002060000154600260003373ffffffffffffffffffffffffffffffffffffffff1673ffffffffffffffffffffffffffffffffffffffff16815260200190815260200160002060010154600260003373ffffffffffffffffffffffffffffffffffffffff1673ffffffffffffffffffffffffffffffffffffffff16815260200190815260200160002060020154925092509250909192565b60016020528060005260406000206000915090508060000160009054906101000a900460ff16908060010154905082565b60011515600160003373ffffffffffffffffffffffffffffffffffffffff1673ffffffffffffffffffffffffffffffffffffffff16815260200190815260200160002060000160009054906101000a900460ff161515146106db576040517f08c379a00000000000000000000000000000000000000000000000000000000081526004016106d290611947565b60405180910390fd5b6000600160003373ffffffffffffffffffffffffffffffffffffffff1673ffffffffffffffffffffffffffffffffffffffff168152602001908152602001600020600201805490500361087657600160003373ffffffffffffffffffffffffffffffffffffffff1673ffffffffffffffffffffffffffffffffffffffff168152602001908152602001600020600080820160006101000a81549060ff021916905560018201600090556002820160006107949190611472565b505060005b600080549050811015610870573373ffffffffffffffffffffffffffffffffffffffff16600082815481106107d1576107d0611967565b5b9060005260206000200160009054906101000a900473ffffffffffffffffffffffffffffffffffffffff1673ffffffffffffffffffffffffffffffffffffffff160361085d576000818154811061082b5761082a611967565b5b9060005260206000200160006101000a81549073ffffffffffffffffffffffffffffffffffffffff0219169055610870565b8080610868906119c5565b915050610799565b50610ed1565b6000600160003373ffffffffffffffffffffffffffffffffffffffff1673ffffffffffffffffffffffffffffffffffffffff168152602001908152602001600020600201805490506108c6611437565b6108d09190611a3c565b90506000600160003373ffffffffffffffffffffffffffffffffffffffff1673ffffffffffffffffffffffffffffffffffffffff168152602001908152602001600020600201828154811061092857610927611967565b5b9060005260206000200160009054906101000a900473ffffffffffffffffffffffffffffffffffffffff16905060008173ffffffffffffffffffffffffffffffffffffffff163460405161097b90611a9e565b60006040518083038185875af1925050503d80600081146109b8576040519150601f19603f3d011682016040523d82523d6000602084013e6109bd565b606091505b5050905080610a01576040517f08c379a00000000000000000000000000000000000000000000000000000000081526004016109f890611aff565b60405180910390fd5b34600260008473ffffffffffffffffffffffffffffffffffffffff1673ffffffffffffffffffffffffffffffffffffffff1681526020019081526020016000206002016000828254610a539190611b1f565b9250508190555060005b600160003373ffffffffffffffffffffffffffffffffffffffff1673ffffffffffffffffffffffffffffffffffffffff16815260200190815260200160002060020180549050811015610d8357600160026000600160003373ffffffffffffffffffffffffffffffffffffffff1673ffffffffffffffffffffffffffffffffffffffff1681526020019081526020016000206002018481548110610b0457610b03611967565b5b9060005260206000200160009054906101000a900473ffffffffffffffffffffffffffffffffffffffff1673ffffffffffffffffffffffffffffffffffffffff1673ffffffffffffffffffffffffffffffffffffffff1681526020019081526020016000206000016000828254610b7b9190611b53565b92505081905550600160026000600160003373ffffffffffffffffffffffffffffffffffffffff1673ffffffffffffffffffffffffffffffffffffffff1681526020019081526020016000206002018481548110610bdc57610bdb611967565b5b9060005260206000200160009054906101000a900473ffffffffffffffffffffffffffffffffffffffff1673ffffffffffffffffffffffffffffffffffffffff1673ffffffffffffffffffffffffffffffffffffffff1681526020019081526020016000206001016000828254610c539190611b1f565b92505081905550600060026000600160003373ffffffffffffffffffffffffffffffffffffffff1673ffffffffffffffffffffffffffffffffffffffff1681526020019081526020016000206002018481548110610cb457610cb3611967565b5b9060005260206000200160009054906101000a900473ffffffffffffffffffffffffffffffffffffffff1673ffffffffffffffffffffffffffffffffffffffff1673ffffffffffffffffffffffffffffffffffffffff16815260200190815260200160002060030160003373ffffffffffffffffffffffffffffffffffffffff1673ffffffffffffffffffffffffffffffffffffffff16815260200190815260200160002060006101000a81548160ff0219169083151502179055508080610d7b906119c5565b915050610a5d565b50600160003373ffffffffffffffffffffffffffffffffffffffff1673ffffffffffffffffffffffffffffffffffffffff168152602001908152602001600020600080820160006101000a81549060ff02191690556001820160009055600282016000610df09190611472565b505060005b600080549050811015610ecc573373ffffffffffffffffffffffffffffffffffffffff1660008281548110610e2d57610e2c611967565b5b9060005260206000200160009054906101000a900473ffffffffffffffffffffffffffffffffffffffff1673ffffffffffffffffffffffffffffffffffffffff1603610eb95760008181548110610e8757610e86611967565b5b9060005260206000200160006101000a81549073ffffffffffffffffffffffffffffffffffffffff0219169055610ecc565b8080610ec4906119c5565b915050610df5565b505050505b565b3373ffffffffffffffffffffffffffffffffffffffff168173ffffffffffffffffffffffffffffffffffffffff1603610f41576040517f08c379a0000000000000000000000000000000000000000000000000000000008152600401610f3890611bd3565b60405180910390fd5b60011515600160008373ffffffffffffffffffffffffffffffffffffffff1673ffffffffffffffffffffffffffffffffffffffff16815260200190815260200160002060000160009054906101000a900460ff16151514610fd7576040517f08c379a0000000000000000000000000000000000000000000000000000000008152600401610fce90611c3f565b60405180910390fd5b60001515600260003373ffffffffffffffffffffffffffffffffffffffff1673ffffffffffffffffffffffffffffffffffffffff16815260200190815260200160002060030160008373ffffffffffffffffffffffffffffffffffffffff1673ffffffffffffffffffffffffffffffffffffffff16815260200190815260200160002060009054906101000a900460ff161515146110aa576040517f08c379a00000000000000000000000000000000000000000000000000000000081526004016110a190611cab565b60405180910390fd5b6001600260003373ffffffffffffffffffffffffffffffffffffffff1673ffffffffffffffffffffffffffffffffffffffff16815260200190815260200160002060030160008373ffffffffffffffffffffffffffffffffffffffff1673ffffffffffffffffffffffffffffffffffffffff16815260200190815260200160002060006101000a81548160ff021916908315150217905550600081905060008173ffffffffffffffffffffffffffffffffffffffff163460405161116d90611a9e565b60006040518083038185875af1925050503d80600081146111aa576040519150601f19603f3d011682016040523d82523d6000602084013e6111af565b606091505b50509050806111f3576040517f08c379a00000000000000000000000000000000000000000000000000000000081526004016111ea90611d17565b60405180910390fd5b6001600260003373ffffffffffffffffffffffffffffffffffffffff1673ffffffffffffffffffffffffffffffffffffffff16815260200190815260200160002060000160008282546112469190611b1f565b92505081905550600160008473ffffffffffffffffffffffffffffffffffffffff1673ffffffffffffffffffffffffffffffffffffffff168152602001908152602001600020600201339080600181540180825580915050600190039060005260206000200160009091909190916101000a81548173ffffffffffffffffffffffffffffffffffffffff021916908373ffffffffffffffffffffffffffffffffffffffff16021790555034600160008573ffffffffffffffffffffffffffffffffffffffff1673ffffffffffffffffffffffffffffffffffffffff16815260200190815260200160002060010160008282546113429190611b1f565b92505081905550505050565b6000806000600160003373ffffffffffffffffffffffffffffffffffffffff1673ffffffffffffffffffffffffffffffffffffffff16815260200190815260200160002060000160009054906101000a900460ff16600160003373ffffffffffffffffffffffffffffffffffffffff1673ffffffffffffffffffffffffffffffffffffffff16815260200190815260200160002060010154600160003373ffffffffffffffffffffffffffffffffffffffff1673ffffffffffffffffffffffffffffffffffffffff16815260200190815260200160002060020180549050925092509250909192565b6000806000905042338260405160200161145393929190611da0565b6040516020818303038152906040528051906020012060001c91505090565b50805460008255906000526020600020908101906114909190611493565b50565b5b808211156114ac576000816000905550600101611494565b5090565b600080fd5b600073ffffffffffffffffffffffffffffffffffffffff82169050919050565b60006114e0826114b5565b9050919050565b6114f0816114d5565b81146114fb57600080fd5b50565b60008135905061150d816114e7565b92915050565b600060208284031215611529576115286114b0565b5b6000611537848285016114fe565b91505092915050565b6000819050919050565b61155381611540565b82525050565b600060608201905061156e600083018661154a565b61157b602083018561154a565b611588604083018461154a565b949350505050565b600081519050919050565b600082825260208201905092915050565b6000819050602082019050919050565b60006115c7826114b5565b9050919050565b6115d7816115bc565b82525050565b60006115e983836115ce565b60208301905092915050565b6000602082019050919050565b600061160d82611590565b611617818561159b565b9350611622836115ac565b8060005b8381101561165357815161163a88826115dd565b9750611645836115f5565b925050600181019050611626565b5085935050505092915050565b6000602082019050818103600083015261167a8184611602565b905092915050565b600081519050919050565b600082825260208201905092915050565b6000819050602082019050919050565b6116b7816114d5565b82525050565b60006116c983836116ae565b60208301905092915050565b6000602082019050919050565b60006116ed82611682565b6116f7818561168d565b93506117028361169e565b8060005b8381101561173357815161171a88826116bd565b9750611725836116d5565b925050600181019050611706565b5085935050505092915050565b6000602082019050818103600083015261175a81846116e2565b905092915050565b600081519050919050565b600082825260208201905092915050565b60005b8381101561179c578082015181840152602081019050611781565b60008484015250505050565b6000601f19601f8301169050919050565b60006117c482611762565b6117ce818561176d565b93506117de81856020860161177e565b6117e7816117a8565b840191505092915050565b6000602082019050818103600083015261180c81846117b9565b905092915050565b60008115159050919050565b61182981611814565b82525050565b60006040820190506118446000830185611820565b611851602083018461154a565b9392505050565b600060608201905061186d6000830186611820565b61187a602083018561154a565b611887604083018461154a565b949350505050565b7f616c72656164792073746172746564206c6f7474657279000000000000000000600082015250565b60006118c560178361176d565b91506118d08261188f565b602082019050919050565b600060208201905081810360008301526118f4816118b8565b9050919050565b7f68617665206e6f742073746172746564206c6f74746572790000000000000000600082015250565b600061193160188361176d565b915061193c826118fb565b602082019050919050565b6000602082019050818103600083015261196081611924565b9050919050565b7f4e487b7100000000000000000000000000000000000000000000000000000000600052603260045260246000fd5b7f4e487b7100000000000000000000000000000000000000000000000000000000600052601160045260246000fd5b60006119d082611540565b91507fffffffffffffffffffffffffffffffffffffffffffffffffffffffffffffffff8203611a0257611a01611996565b5b600182019050919050565b7f4e487b7100000000000000000000000000000000000000000000000000000000600052601260045260246000fd5b6000611a4782611540565b9150611a5283611540565b925082611a6257611a61611a0d565b5b828206905092915050565b600081905092915050565b50565b6000611a88600083611a6d565b9150611a9382611a78565b600082019050919050565b6000611aa982611a7b565b9150819050919050565b7f7472616e206973206661696c6564000000000000000000000000000000000000600082015250565b6000611ae9600e8361176d565b9150611af482611ab3565b602082019050919050565b60006020820190508181036000830152611b1881611adc565b9050919050565b6000611b2a82611540565b9150611b3583611540565b9250828201905080821115611b4d57611b4c611996565b5b92915050565b6000611b5e82611540565b9150611b6983611540565b9250828203905081811115611b8157611b80611996565b5b92915050565b7f796f752063616e7420656e746572206173207520617265206d616e6167657200600082015250565b6000611bbd601f8361176d565b9150611bc882611b87565b602082019050919050565b60006020820190508181036000830152611bec81611bb0565b9050919050565b7f74686973206973206e6f74206163746976650000000000000000000000000000600082015250565b6000611c2960128361176d565b9150611c3482611bf3565b602082019050919050565b60006020820190508181036000830152611c5881611c1c565b9050919050565b7f616c726561647920627579204c6f747465727900000000000000000000000000600082015250565b6000611c9560138361176d565b9150611ca082611c5f565b602082019050919050565b60006020820190508181036000830152611cc481611c88565b9050919050565b7f5472616e73666572206661696c65640000000000000000000000000000000000600082015250565b6000611d01600f8361176d565b9150611d0c82611ccb565b602082019050919050565b60006020820190508181036000830152611d3081611cf4565b9050919050565b6000819050919050565b611d52611d4d82611540565b611d37565b82525050565b60008160601b9050919050565b6000611d7082611d58565b9050919050565b6000611d8282611d65565b9050919050565b611d9a611d95826114d5565b611d77565b82525050565b6000611dac8286611d41565b602082019150611dbc8285611d89565b601482019150611dcc8284611d41565b60208201915081905094935050505056fea264697066735822122099262e318f1236f3dc0025ad049f122b3f89873cd97898fa385ace83dbf8170764736f6c63430008130033",
  "linkReferences": {},
  "deployedLinkReferences": {}
}